{
  "contractName": "NFT",
  "abi": [
    {
      "inputs": [
        {
          "internalType": "string",
          "name": "_name",
          "type": "string"
        },
        {
          "internalType": "string",
          "name": "_symbol",
          "type": "string"
        },
        {
          "internalType": "string",
          "name": "_initBaseURI",
          "type": "string"
        }
      ],
      "stateMutability": "nonpayable",
      "type": "constructor"
    },
    {
      "anonymous": false,
      "inputs": [
        {
          "indexed": true,
          "internalType": "address",
          "name": "owner",
          "type": "address"
        },
        {
          "indexed": true,
          "internalType": "address",
          "name": "approved",
          "type": "address"
        },
        {
          "indexed": true,
          "internalType": "uint256",
          "name": "tokenId",
          "type": "uint256"
        }
      ],
      "name": "Approval",
      "type": "event"
    },
    {
      "anonymous": false,
      "inputs": [
        {
          "indexed": true,
          "internalType": "address",
          "name": "owner",
          "type": "address"
        },
        {
          "indexed": true,
          "internalType": "address",
          "name": "operator",
          "type": "address"
        },
        {
          "indexed": false,
          "internalType": "bool",
          "name": "approved",
          "type": "bool"
        }
      ],
      "name": "ApprovalForAll",
      "type": "event"
    },
    {
      "anonymous": false,
      "inputs": [
        {
          "indexed": true,
          "internalType": "address",
          "name": "previousOwner",
          "type": "address"
        },
        {
          "indexed": true,
          "internalType": "address",
          "name": "newOwner",
          "type": "address"
        }
      ],
      "name": "OwnershipTransferred",
      "type": "event"
    },
    {
      "anonymous": false,
      "inputs": [
        {
          "indexed": true,
          "internalType": "address",
          "name": "from",
          "type": "address"
        },
        {
          "indexed": true,
          "internalType": "address",
          "name": "to",
          "type": "address"
        },
        {
          "indexed": true,
          "internalType": "uint256",
          "name": "tokenId",
          "type": "uint256"
        }
      ],
      "name": "Transfer",
      "type": "event"
    },
    {
      "inputs": [
        {
          "internalType": "address",
          "name": "to",
          "type": "address"
        },
        {
          "internalType": "uint256",
          "name": "tokenId",
          "type": "uint256"
        }
      ],
      "name": "approve",
      "outputs": [],
      "stateMutability": "nonpayable",
      "type": "function"
    },
    {
      "inputs": [
        {
          "internalType": "address",
          "name": "owner",
          "type": "address"
        }
      ],
      "name": "balanceOf",
      "outputs": [
        {
          "internalType": "uint256",
          "name": "",
          "type": "uint256"
        }
      ],
      "stateMutability": "view",
      "type": "function",
      "constant": true
    },
    {
      "inputs": [],
      "name": "baseExtension",
      "outputs": [
        {
          "internalType": "string",
          "name": "",
          "type": "string"
        }
      ],
      "stateMutability": "view",
      "type": "function",
      "constant": true
    },
    {
      "inputs": [],
      "name": "cost",
      "outputs": [
        {
          "internalType": "uint256",
          "name": "",
          "type": "uint256"
        }
      ],
      "stateMutability": "view",
      "type": "function",
      "constant": true
    },
    {
      "inputs": [
        {
          "internalType": "uint256",
          "name": "tokenId",
          "type": "uint256"
        }
      ],
      "name": "getApproved",
      "outputs": [
        {
          "internalType": "address",
          "name": "",
          "type": "address"
        }
      ],
      "stateMutability": "view",
      "type": "function",
      "constant": true
    },
    {
      "inputs": [
        {
          "internalType": "address",
          "name": "owner",
          "type": "address"
        },
        {
          "internalType": "address",
          "name": "operator",
          "type": "address"
        }
      ],
      "name": "isApprovedForAll",
      "outputs": [
        {
          "internalType": "bool",
          "name": "",
          "type": "bool"
        }
      ],
      "stateMutability": "view",
      "type": "function",
      "constant": true
    },
    {
      "inputs": [],
      "name": "maxSupply",
      "outputs": [
        {
          "internalType": "uint256",
          "name": "",
          "type": "uint256"
        }
      ],
      "stateMutability": "view",
      "type": "function",
      "constant": true
    },
    {
      "inputs": [],
      "name": "name",
      "outputs": [
        {
          "internalType": "string",
          "name": "",
          "type": "string"
        }
      ],
      "stateMutability": "view",
      "type": "function",
      "constant": true
    },
    {
      "inputs": [],
      "name": "owner",
      "outputs": [
        {
          "internalType": "address",
          "name": "",
          "type": "address"
        }
      ],
      "stateMutability": "view",
      "type": "function",
      "constant": true
    },
    {
      "inputs": [
        {
          "internalType": "uint256",
          "name": "tokenId",
          "type": "uint256"
        }
      ],
      "name": "ownerOf",
      "outputs": [
        {
          "internalType": "address",
          "name": "",
          "type": "address"
        }
      ],
      "stateMutability": "view",
      "type": "function",
      "constant": true
    },
    {
      "inputs": [],
      "name": "renounceOwnership",
      "outputs": [],
      "stateMutability": "nonpayable",
      "type": "function"
    },
    {
      "inputs": [
        {
          "internalType": "address",
          "name": "from",
          "type": "address"
        },
        {
          "internalType": "address",
          "name": "to",
          "type": "address"
        },
        {
          "internalType": "uint256",
          "name": "tokenId",
          "type": "uint256"
        }
      ],
      "name": "safeTransferFrom",
      "outputs": [],
      "stateMutability": "nonpayable",
      "type": "function"
    },
    {
      "inputs": [
        {
          "internalType": "address",
          "name": "from",
          "type": "address"
        },
        {
          "internalType": "address",
          "name": "to",
          "type": "address"
        },
        {
          "internalType": "uint256",
          "name": "tokenId",
          "type": "uint256"
        },
        {
          "internalType": "bytes",
          "name": "_data",
          "type": "bytes"
        }
      ],
      "name": "safeTransferFrom",
      "outputs": [],
      "stateMutability": "nonpayable",
      "type": "function"
    },
    {
      "inputs": [
        {
          "internalType": "address",
          "name": "operator",
          "type": "address"
        },
        {
          "internalType": "bool",
          "name": "approved",
          "type": "bool"
        }
      ],
      "name": "setApprovalForAll",
      "outputs": [],
      "stateMutability": "nonpayable",
      "type": "function"
    },
    {
      "inputs": [
        {
          "internalType": "bytes4",
          "name": "interfaceId",
          "type": "bytes4"
        }
      ],
      "name": "supportsInterface",
      "outputs": [
        {
          "internalType": "bool",
          "name": "",
          "type": "bool"
        }
      ],
      "stateMutability": "view",
      "type": "function",
      "constant": true
    },
    {
      "inputs": [],
      "name": "symbol",
      "outputs": [
        {
          "internalType": "string",
          "name": "",
          "type": "string"
        }
      ],
      "stateMutability": "view",
      "type": "function",
      "constant": true
    },
    {
      "inputs": [
        {
          "internalType": "uint256",
          "name": "index",
          "type": "uint256"
        }
      ],
      "name": "tokenByIndex",
      "outputs": [
        {
          "internalType": "uint256",
          "name": "",
          "type": "uint256"
        }
      ],
      "stateMutability": "view",
      "type": "function",
      "constant": true
    },
    {
      "inputs": [
        {
          "internalType": "address",
          "name": "owner",
          "type": "address"
        },
        {
          "internalType": "uint256",
          "name": "index",
          "type": "uint256"
        }
      ],
      "name": "tokenOfOwnerByIndex",
      "outputs": [
        {
          "internalType": "uint256",
          "name": "",
          "type": "uint256"
        }
      ],
      "stateMutability": "view",
      "type": "function",
      "constant": true
    },
    {
      "inputs": [],
      "name": "totalSupply",
      "outputs": [
        {
          "internalType": "uint256",
          "name": "",
          "type": "uint256"
        }
      ],
      "stateMutability": "view",
      "type": "function",
      "constant": true
    },
    {
      "inputs": [
        {
          "internalType": "address",
          "name": "from",
          "type": "address"
        },
        {
          "internalType": "address",
          "name": "to",
          "type": "address"
        },
        {
          "internalType": "uint256",
          "name": "tokenId",
          "type": "uint256"
        }
      ],
      "name": "transferFrom",
      "outputs": [],
      "stateMutability": "nonpayable",
      "type": "function"
    },
    {
      "inputs": [
        {
          "internalType": "address",
          "name": "newOwner",
          "type": "address"
        }
      ],
      "name": "transferOwnership",
      "outputs": [],
      "stateMutability": "nonpayable",
      "type": "function"
    },
    {
      "inputs": [],
      "name": "mintRobot",
      "outputs": [],
      "stateMutability": "payable",
      "type": "function",
      "payable": true
    },
    {
      "inputs": [
        {
          "internalType": "uint256",
          "name": "tokenId",
          "type": "uint256"
        }
      ],
      "name": "checkOwner",
      "outputs": [
        {
          "internalType": "address",
          "name": "",
          "type": "address"
        }
      ],
      "stateMutability": "view",
      "type": "function",
      "constant": true
    },
    {
      "inputs": [
        {
          "internalType": "address",
          "name": "_owner",
          "type": "address"
        }
      ],
      "name": "walletOfOwner",
      "outputs": [
        {
          "internalType": "uint256[]",
          "name": "",
          "type": "uint256[]"
        }
      ],
      "stateMutability": "view",
      "type": "function",
      "constant": true
    },
    {
      "inputs": [
        {
          "internalType": "uint256",
          "name": "tokenId",
          "type": "uint256"
        }
      ],
      "name": "tokenURI",
      "outputs": [
        {
          "internalType": "string",
          "name": "",
          "type": "string"
        }
      ],
      "stateMutability": "view",
      "type": "function",
      "constant": true
    },
    {
      "inputs": [
        {
          "internalType": "uint256",
          "name": "_newCost",
          "type": "uint256"
        }
      ],
      "name": "setCost",
      "outputs": [],
      "stateMutability": "nonpayable",
      "type": "function"
    },
    {
      "inputs": [
        {
          "internalType": "string",
          "name": "_newBaseURI",
          "type": "string"
        }
      ],
      "name": "setBaseURI",
      "outputs": [],
      "stateMutability": "nonpayable",
      "type": "function"
    },
    {
      "inputs": [],
      "name": "withdraw",
      "outputs": [],
      "stateMutability": "payable",
      "type": "function",
      "payable": true
    }
  ],
  "bytecode": "0x60806040526040518060400160405280600581526020017f2e6a736f6e000000000000000000000000000000000000000000000000000000815250600c908051906020019062000051929190620002a9565b50670de0b6b3a7640000600d556014600e553480156200007057600080fd5b506040516200436c3803806200436c8339818101604052810190620000969190620004f6565b82828160009080519060200190620000b0929190620002a9565b508060019080519060200190620000c9929190620002a9565b505050620000ec620000e06200010660201b60201c565b6200010e60201b60201c565b620000fd81620001d460201b60201c565b50505062000697565b600033905090565b6000600a60009054906101000a900473ffffffffffffffffffffffffffffffffffffffff16905081600a60006101000a81548173ffffffffffffffffffffffffffffffffffffffff021916908373ffffffffffffffffffffffffffffffffffffffff1602179055508173ffffffffffffffffffffffffffffffffffffffff168173ffffffffffffffffffffffffffffffffffffffff167f8be0079c531659141344cd1fd0a4f28419497f9722a3daafe3b4186f6b6457e060405160405180910390a35050565b620001e46200010660201b60201c565b73ffffffffffffffffffffffffffffffffffffffff166200020a6200027f60201b60201c565b73ffffffffffffffffffffffffffffffffffffffff161462000263576040517f08c379a00000000000000000000000000000000000000000000000000000000081526004016200025a9062000610565b60405180910390fd5b80600b90805190602001906200027b929190620002a9565b5050565b6000600a60009054906101000a900473ffffffffffffffffffffffffffffffffffffffff16905090565b828054620002b79062000661565b90600052602060002090601f016020900481019282620002db576000855562000327565b82601f10620002f657805160ff191683800117855562000327565b8280016001018555821562000327579182015b828111156200032657825182559160200191906001019062000309565b5b5090506200033691906200033a565b5090565b5b80821115620003555760008160009055506001016200033b565b5090565b6000604051905090565b600080fd5b600080fd5b600080fd5b600080fd5b6000601f19601f8301169050919050565b7f4e487b7100000000000000000000000000000000000000000000000000000000600052604160045260246000fd5b620003c28262000377565b810181811067ffffffffffffffff82111715620003e457620003e362000388565b5b80604052505050565b6000620003f962000359565b9050620004078282620003b7565b919050565b600067ffffffffffffffff8211156200042a576200042962000388565b5b620004358262000377565b9050602081019050919050565b60005b838110156200046257808201518184015260208101905062000445565b8381111562000472576000848401525b50505050565b60006200048f62000489846200040c565b620003ed565b905082815260208101848484011115620004ae57620004ad62000372565b5b620004bb84828562000442565b509392505050565b600082601f830112620004db57620004da6200036d565b5b8151620004ed84826020860162000478565b91505092915050565b60008060006060848603121562000512576200051162000363565b5b600084015167ffffffffffffffff81111562000533576200053262000368565b5b6200054186828701620004c3565b935050602084015167ffffffffffffffff81111562000565576200056462000368565b5b6200057386828701620004c3565b925050604084015167ffffffffffffffff81111562000597576200059662000368565b5b620005a586828701620004c3565b9150509250925092565b600082825260208201905092915050565b7f4f776e61626c653a2063616c6c6572206973206e6f7420746865206f776e6572600082015250565b6000620005f8602083620005af565b91506200060582620005c0565b602082019050919050565b600060208201905081810360008301526200062b81620005e9565b9050919050565b7f4e487b7100000000000000000000000000000000000000000000000000000000600052602260045260246000fd5b600060028204905060018216806200067a57607f821691505b6020821081141562000691576200069062000632565b5b50919050565b613cc580620006a76000396000f3fe6080604052600436106101b75760003560e01c80636352211e116100ec578063a22cb4651161008a578063c87b56dd11610064578063c87b56dd146105f0578063d5abeb011461062d578063e985e9c514610658578063f2fde38b14610695576101b7565b8063a22cb46514610573578063b88d4fde1461059c578063c6682862146105c5576101b7565b80638da5cb5b116100c65780638da5cb5b146104d657806395d89b41146105015780639870dce01461052c5780639ad88fda14610569576101b7565b80636352211e1461044557806370a0823114610482578063715018a6146104bf576101b7565b80632f745c5911610159578063438b630011610133578063438b63001461037957806344a0d68a146103b65780634f6ccce7146103df57806355f804b31461041c576101b7565b80632f745c59146103095780633ccfd60b1461034657806342842e0e14610350576101b7565b8063095ea7b311610195578063095ea7b31461026157806313faede61461028a57806318160ddd146102b557806323b872dd146102e0576101b7565b806301ffc9a7146101bc57806306fdde03146101f9578063081812fc14610224575b600080fd5b3480156101c857600080fd5b506101e360048036038101906101de9190612746565b6106be565b6040516101f0919061278e565b60405180910390f35b34801561020557600080fd5b5061020e610738565b60405161021b9190612842565b60405180910390f35b34801561023057600080fd5b5061024b6004803603810190610246919061289a565b6107ca565b6040516102589190612908565b60405180910390f35b34801561026d57600080fd5b506102886004803603810190610283919061294f565b61084f565b005b34801561029657600080fd5b5061029f610967565b6040516102ac919061299e565b60405180910390f35b3480156102c157600080fd5b506102ca61096d565b6040516102d7919061299e565b60405180910390f35b3480156102ec57600080fd5b50610307600480360381019061030291906129b9565b61097a565b005b34801561031557600080fd5b50610330600480360381019061032b919061294f565b6109da565b60405161033d919061299e565b60405180910390f35b61034e610a7f565b005b34801561035c57600080fd5b50610377600480360381019061037291906129b9565b610b74565b005b34801561038557600080fd5b506103a0600480360381019061039b9190612a0c565b610b94565b6040516103ad9190612af7565b60405180910390f35b3480156103c257600080fd5b506103dd60048036038101906103d8919061289a565b610c42565b005b3480156103eb57600080fd5b506104066004803603810190610401919061289a565b610cc8565b604051610413919061299e565b60405180910390f35b34801561042857600080fd5b50610443600480360381019061043e9190612c4e565b610d39565b005b34801561045157600080fd5b5061046c6004803603810190610467919061289a565b610dcf565b6040516104799190612908565b60405180910390f35b34801561048e57600080fd5b506104a960048036038101906104a49190612a0c565b610e81565b6040516104b6919061299e565b60405180910390f35b3480156104cb57600080fd5b506104d4610f39565b005b3480156104e257600080fd5b506104eb610fc1565b6040516104f89190612908565b60405180910390f35b34801561050d57600080fd5b50610516610feb565b6040516105239190612842565b60405180910390f35b34801561053857600080fd5b50610553600480360381019061054e919061289a565b61107d565b6040516105609190612908565b60405180910390f35b610571611094565b005b34801561057f57600080fd5b5061059a60048036038101906105959190612cc3565b611112565b005b3480156105a857600080fd5b506105c360048036038101906105be9190612da4565b611128565b005b3480156105d157600080fd5b506105da61118a565b6040516105e79190612842565b60405180910390f35b3480156105fc57600080fd5b506106176004803603810190610612919061289a565b611218565b6040516106249190612842565b60405180910390f35b34801561063957600080fd5b506106426112e8565b60405161064f919061299e565b60405180910390f35b34801561066457600080fd5b5061067f600480360381019061067a9190612e27565b6112ee565b60405161068c919061278e565b60405180910390f35b3480156106a157600080fd5b506106bc60048036038101906106b79190612a0c565b611382565b005b60007f780e9d63000000000000000000000000000000000000000000000000000000007bffffffffffffffffffffffffffffffffffffffffffffffffffffffff1916827bffffffffffffffffffffffffffffffffffffffffffffffffffffffff1916148061073157506107308261147a565b5b9050919050565b60606000805461074790612e96565b80601f016020809104026020016040519081016040528092919081815260200182805461077390612e96565b80156107c05780601f10610795576101008083540402835291602001916107c0565b820191906000526020600020905b8154815290600101906020018083116107a357829003601f168201915b5050505050905090565b60006107d58261155c565b610814576040517f08c379a000000000000000000000000000000000000000000000000000000000815260040161080b90612f3a565b60405180910390fd5b6004600083815260200190815260200160002060009054906101000a900473ffffffffffffffffffffffffffffffffffffffff169050919050565b600061085a82610dcf565b90508073ffffffffffffffffffffffffffffffffffffffff168373ffffffffffffffffffffffffffffffffffffffff1614156108cb576040517f08c379a00000000000000000000000000000000000000000000000000000000081526004016108c290612fcc565b60405180910390fd5b8073ffffffffffffffffffffffffffffffffffffffff166108ea6115c8565b73ffffffffffffffffffffffffffffffffffffffff1614806109195750610918816109136115c8565b6112ee565b5b610958576040517f08c379a000000000000000000000000000000000000000000000000000000000815260040161094f9061305e565b60405180910390fd5b61096283836115d0565b505050565b600d5481565b6000600880549050905090565b61098b6109856115c8565b82611689565b6109ca576040517f08c379a00000000000000000000000000000000000000000000000000000000081526004016109c1906130f0565b60405180910390fd5b6109d5838383611767565b505050565b60006109e583610e81565b8210610a26576040517f08c379a0000000000000000000000000000000000000000000000000000000008152600401610a1d90613182565b60405180910390fd5b600660008473ffffffffffffffffffffffffffffffffffffffff1673ffffffffffffffffffffffffffffffffffffffff168152602001908152602001600020600083815260200190815260200160002054905092915050565b610a876115c8565b73ffffffffffffffffffffffffffffffffffffffff16610aa5610fc1565b73ffffffffffffffffffffffffffffffffffffffff1614610afb576040517f08c379a0000000000000000000000000000000000000000000000000000000008152600401610af2906131ee565b60405180910390fd5b60003373ffffffffffffffffffffffffffffffffffffffff1647604051610b219061323f565b60006040518083038185875af1925050503d8060008114610b5e576040519150601f19603f3d011682016040523d82523d6000602084013e610b63565b606091505b5050905080610b7157600080fd5b50565b610b8f83838360405180602001604052806000815250611128565b505050565b60606000610ba183610e81565b905060008167ffffffffffffffff811115610bbf57610bbe612b23565b5b604051908082528060200260200182016040528015610bed5781602001602082028036833780820191505090505b50905060005b82811015610c3757610c0585826109da565b828281518110610c1857610c17613254565b5b6020026020010181815250508080610c2f906132b2565b915050610bf3565b508092505050919050565b610c4a6115c8565b73ffffffffffffffffffffffffffffffffffffffff16610c68610fc1565b73ffffffffffffffffffffffffffffffffffffffff1614610cbe576040517f08c379a0000000000000000000000000000000000000000000000000000000008152600401610cb5906131ee565b60405180910390fd5b80600d8190555050565b6000610cd261096d565b8210610d13576040517f08c379a0000000000000000000000000000000000000000000000000000000008152600401610d0a9061336d565b60405180910390fd5b60088281548110610d2757610d26613254565b5b90600052602060002001549050919050565b610d416115c8565b73ffffffffffffffffffffffffffffffffffffffff16610d5f610fc1565b73ffffffffffffffffffffffffffffffffffffffff1614610db5576040517f08c379a0000000000000000000000000000000000000000000000000000000008152600401610dac906131ee565b60405180910390fd5b80600b9080519060200190610dcb929190612637565b5050565b6000806002600084815260200190815260200160002060009054906101000a900473ffffffffffffffffffffffffffffffffffffffff169050600073ffffffffffffffffffffffffffffffffffffffff168173ffffffffffffffffffffffffffffffffffffffff161415610e78576040517f08c379a0000000000000000000000000000000000000000000000000000000008152600401610e6f906133ff565b60405180910390fd5b80915050919050565b60008073ffffffffffffffffffffffffffffffffffffffff168273ffffffffffffffffffffffffffffffffffffffff161415610ef2576040517f08c379a0000000000000000000000000000000000000000000000000000000008152600401610ee990613491565b60405180910390fd5b600360008373ffffffffffffffffffffffffffffffffffffffff1673ffffffffffffffffffffffffffffffffffffffff168152602001908152602001600020549050919050565b610f416115c8565b73ffffffffffffffffffffffffffffffffffffffff16610f5f610fc1565b73ffffffffffffffffffffffffffffffffffffffff1614610fb5576040517f08c379a0000000000000000000000000000000000000000000000000000000008152600401610fac906131ee565b60405180910390fd5b610fbf60006119c3565b565b6000600a60009054906101000a900473ffffffffffffffffffffffffffffffffffffffff16905090565b606060018054610ffa90612e96565b80601f016020809104026020016040519081016040528092919081815260200182805461102690612e96565b80156110735780601f1061104857610100808354040283529160200191611073565b820191906000526020600020905b81548152906001019060200180831161105657829003601f168201915b5050505050905090565b60008061108983610dcf565b905080915050919050565b600061109e61096d565b9050600e548111156110af57600080fd5b6110b7610fc1565b73ffffffffffffffffffffffffffffffffffffffff163373ffffffffffffffffffffffffffffffffffffffff16146110f957600d543410156110f857600080fd5b5b61110f3360018361110a91906134b1565b611a89565b50565b61112461111d6115c8565b8383611c57565b5050565b6111396111336115c8565b83611689565b611178576040517f08c379a000000000000000000000000000000000000000000000000000000000815260040161116f906130f0565b60405180910390fd5b61118484848484611dc4565b50505050565b600c805461119790612e96565b80601f01602080910402602001604051908101604052809291908181526020018280546111c390612e96565b80156112105780601f106111e557610100808354040283529160200191611210565b820191906000526020600020905b8154815290600101906020018083116111f357829003601f168201915b505050505081565b60606112238261155c565b611262576040517f08c379a000000000000000000000000000000000000000000000000000000000815260040161125990613579565b60405180910390fd5b600061126c611e20565b905060008151116112b2576040518060400160405280600681526020017f6e6f2075726900000000000000000000000000000000000000000000000000008152506112e0565b806112bc84611eb2565b600c6040516020016112d093929190613669565b6040516020818303038152906040525b915050919050565b600e5481565b6000600560008473ffffffffffffffffffffffffffffffffffffffff1673ffffffffffffffffffffffffffffffffffffffff16815260200190815260200160002060008373ffffffffffffffffffffffffffffffffffffffff1673ffffffffffffffffffffffffffffffffffffffff16815260200190815260200160002060009054906101000a900460ff16905092915050565b61138a6115c8565b73ffffffffffffffffffffffffffffffffffffffff166113a8610fc1565b73ffffffffffffffffffffffffffffffffffffffff16146113fe576040517f08c379a00000000000000000000000000000000000000000000000000000000081526004016113f5906131ee565b60405180910390fd5b600073ffffffffffffffffffffffffffffffffffffffff168173ffffffffffffffffffffffffffffffffffffffff16141561146e576040517f08c379a00000000000000000000000000000000000000000000000000000000081526004016114659061370c565b60405180910390fd5b611477816119c3565b50565b60007f80ac58cd000000000000000000000000000000000000000000000000000000007bffffffffffffffffffffffffffffffffffffffffffffffffffffffff1916827bffffffffffffffffffffffffffffffffffffffffffffffffffffffff1916148061154557507f5b5e139f000000000000000000000000000000000000000000000000000000007bffffffffffffffffffffffffffffffffffffffffffffffffffffffff1916827bffffffffffffffffffffffffffffffffffffffffffffffffffffffff1916145b80611555575061155482612013565b5b9050919050565b60008073ffffffffffffffffffffffffffffffffffffffff166002600084815260200190815260200160002060009054906101000a900473ffffffffffffffffffffffffffffffffffffffff1673ffffffffffffffffffffffffffffffffffffffff1614159050919050565b600033905090565b816004600083815260200190815260200160002060006101000a81548173ffffffffffffffffffffffffffffffffffffffff021916908373ffffffffffffffffffffffffffffffffffffffff160217905550808273ffffffffffffffffffffffffffffffffffffffff1661164383610dcf565b73ffffffffffffffffffffffffffffffffffffffff167f8c5be1e5ebec7d5bd14f71427d1e84f3dd0314c0f7b2291e5b200ac8c7c3b92560405160405180910390a45050565b60006116948261155c565b6116d3576040517f08c379a00000000000000000000000000000000000000000000000000000000081526004016116ca9061379e565b60405180910390fd5b60006116de83610dcf565b90508073ffffffffffffffffffffffffffffffffffffffff168473ffffffffffffffffffffffffffffffffffffffff16148061174d57508373ffffffffffffffffffffffffffffffffffffffff16611735846107ca565b73ffffffffffffffffffffffffffffffffffffffff16145b8061175e575061175d81856112ee565b5b91505092915050565b8273ffffffffffffffffffffffffffffffffffffffff1661178782610dcf565b73ffffffffffffffffffffffffffffffffffffffff16146117dd576040517f08c379a00000000000000000000000000000000000000000000000000000000081526004016117d490613830565b60405180910390fd5b600073ffffffffffffffffffffffffffffffffffffffff168273ffffffffffffffffffffffffffffffffffffffff16141561184d576040517f08c379a0000000000000000000000000000000000000000000000000000000008152600401611844906138c2565b60405180910390fd5b61185883838361207d565b6118636000826115d0565b6001600360008573ffffffffffffffffffffffffffffffffffffffff1673ffffffffffffffffffffffffffffffffffffffff16815260200190815260200160002060008282546118b391906138e2565b925050819055506001600360008473ffffffffffffffffffffffffffffffffffffffff1673ffffffffffffffffffffffffffffffffffffffff168152602001908152602001600020600082825461190a91906134b1565b92505081905550816002600083815260200190815260200160002060006101000a81548173ffffffffffffffffffffffffffffffffffffffff021916908373ffffffffffffffffffffffffffffffffffffffff160217905550808273ffffffffffffffffffffffffffffffffffffffff168473ffffffffffffffffffffffffffffffffffffffff167fddf252ad1be2c89b69c2b068fc378daa952ba7f163c4a11628f55a4df523b3ef60405160405180910390a4505050565b6000600a60009054906101000a900473ffffffffffffffffffffffffffffffffffffffff16905081600a60006101000a81548173ffffffffffffffffffffffffffffffffffffffff021916908373ffffffffffffffffffffffffffffffffffffffff1602179055508173ffffffffffffffffffffffffffffffffffffffff168173ffffffffffffffffffffffffffffffffffffffff167f8be0079c531659141344cd1fd0a4f28419497f9722a3daafe3b4186f6b6457e060405160405180910390a35050565b600073ffffffffffffffffffffffffffffffffffffffff168273ffffffffffffffffffffffffffffffffffffffff161415611af9576040517f08c379a0000000000000000000000000000000000000000000000000000000008152600401611af090613962565b60405180910390fd5b611b028161155c565b15611b42576040517f08c379a0000000000000000000000000000000000000000000000000000000008152600401611b39906139ce565b60405180910390fd5b611b4e6000838361207d565b6001600360008473ffffffffffffffffffffffffffffffffffffffff1673ffffffffffffffffffffffffffffffffffffffff1681526020019081526020016000206000828254611b9e91906134b1565b92505081905550816002600083815260200190815260200160002060006101000a81548173ffffffffffffffffffffffffffffffffffffffff021916908373ffffffffffffffffffffffffffffffffffffffff160217905550808273ffffffffffffffffffffffffffffffffffffffff16600073ffffffffffffffffffffffffffffffffffffffff167fddf252ad1be2c89b69c2b068fc378daa952ba7f163c4a11628f55a4df523b3ef60405160405180910390a45050565b8173ffffffffffffffffffffffffffffffffffffffff168373ffffffffffffffffffffffffffffffffffffffff161415611cc6576040517f08c379a0000000000000000000000000000000000000000000000000000000008152600401611cbd90613a3a565b60405180910390fd5b80600560008573ffffffffffffffffffffffffffffffffffffffff1673ffffffffffffffffffffffffffffffffffffffff16815260200190815260200160002060008473ffffffffffffffffffffffffffffffffffffffff1673ffffffffffffffffffffffffffffffffffffffff16815260200190815260200160002060006101000a81548160ff0219169083151502179055508173ffffffffffffffffffffffffffffffffffffffff168373ffffffffffffffffffffffffffffffffffffffff167f17307eab39ab6107e8899845ad3d59bd9653f200f220920489ca2b5937696c3183604051611db7919061278e565b60405180910390a3505050565b611dcf848484611767565b611ddb84848484612191565b611e1a576040517f08c379a0000000000000000000000000000000000000000000000000000000008152600401611e1190613acc565b60405180910390fd5b50505050565b6060600b8054611e2f90612e96565b80601f0160208091040260200160405190810160405280929190818152602001828054611e5b90612e96565b8015611ea85780601f10611e7d57610100808354040283529160200191611ea8565b820191906000526020600020905b815481529060010190602001808311611e8b57829003601f168201915b5050505050905090565b60606000821415611efa576040518060400160405280600181526020017f3000000000000000000000000000000000000000000000000000000000000000815250905061200e565b600082905060005b60008214611f2c578080611f15906132b2565b915050600a82611f259190613b1b565b9150611f02565b60008167ffffffffffffffff811115611f4857611f47612b23565b5b6040519080825280601f01601f191660200182016040528015611f7a5781602001600182028036833780820191505090505b5090505b6000851461200757600182611f9391906138e2565b9150600a85611fa29190613b4c565b6030611fae91906134b1565b60f81b818381518110611fc457611fc3613254565b5b60200101907effffffffffffffffffffffffffffffffffffffffffffffffffffffffffffff1916908160001a905350600a856120009190613b1b565b9450611f7e565b8093505050505b919050565b60007f01ffc9a7000000000000000000000000000000000000000000000000000000007bffffffffffffffffffffffffffffffffffffffffffffffffffffffff1916827bffffffffffffffffffffffffffffffffffffffffffffffffffffffff1916149050919050565b612088838383612319565b600073ffffffffffffffffffffffffffffffffffffffff168373ffffffffffffffffffffffffffffffffffffffff1614156120cb576120c68161231e565b61210a565b8173ffffffffffffffffffffffffffffffffffffffff168373ffffffffffffffffffffffffffffffffffffffff1614612109576121088382612367565b5b5b600073ffffffffffffffffffffffffffffffffffffffff168273ffffffffffffffffffffffffffffffffffffffff16141561214d57612148816124d4565b61218c565b8273ffffffffffffffffffffffffffffffffffffffff168273ffffffffffffffffffffffffffffffffffffffff161461218b5761218a82826125a5565b5b5b505050565b60006121b28473ffffffffffffffffffffffffffffffffffffffff16612624565b1561230c578373ffffffffffffffffffffffffffffffffffffffff1663150b7a026121db6115c8565b8786866040518563ffffffff1660e01b81526004016121fd9493929190613bd2565b6020604051808303816000875af192505050801561223957506040513d601f19601f820116820180604052508101906122369190613c33565b60015b6122bc573d8060008114612269576040519150601f19603f3d011682016040523d82523d6000602084013e61226e565b606091505b506000815114156122b4576040517f08c379a00000000000000000000000000000000000000000000000000000000081526004016122ab90613acc565b60405180910390fd5b805181602001fd5b63150b7a0260e01b7bffffffffffffffffffffffffffffffffffffffffffffffffffffffff1916817bffffffffffffffffffffffffffffffffffffffffffffffffffffffff191614915050612311565b600190505b949350505050565b505050565b6008805490506009600083815260200190815260200160002081905550600881908060018154018082558091505060019003906000526020600020016000909190919091505550565b6000600161237484610e81565b61237e91906138e2565b9050600060076000848152602001908152602001600020549050818114612463576000600660008673ffffffffffffffffffffffffffffffffffffffff1673ffffffffffffffffffffffffffffffffffffffff168152602001908152602001600020600084815260200190815260200160002054905080600660008773ffffffffffffffffffffffffffffffffffffffff1673ffffffffffffffffffffffffffffffffffffffff168152602001908152602001600020600084815260200190815260200160002081905550816007600083815260200190815260200160002081905550505b6007600084815260200190815260200160002060009055600660008573ffffffffffffffffffffffffffffffffffffffff1673ffffffffffffffffffffffffffffffffffffffff16815260200190815260200160002060008381526020019081526020016000206000905550505050565b600060016008805490506124e891906138e2565b905060006009600084815260200190815260200160002054905060006008838154811061251857612517613254565b5b90600052602060002001549050806008838154811061253a57612539613254565b5b90600052602060002001819055508160096000838152602001908152602001600020819055506009600085815260200190815260200160002060009055600880548061258957612588613c60565b5b6001900381819060005260206000200160009055905550505050565b60006125b083610e81565b905081600660008573ffffffffffffffffffffffffffffffffffffffff1673ffffffffffffffffffffffffffffffffffffffff168152602001908152602001600020600083815260200190815260200160002081905550806007600084815260200190815260200160002081905550505050565b600080823b905060008111915050919050565b82805461264390612e96565b90600052602060002090601f01602090048101928261266557600085556126ac565b82601f1061267e57805160ff19168380011785556126ac565b828001600101855582156126ac579182015b828111156126ab578251825591602001919060010190612690565b5b5090506126b991906126bd565b5090565b5b808211156126d65760008160009055506001016126be565b5090565b6000604051905090565b600080fd5b600080fd5b60007fffffffff0000000000000000000000000000000000000000000000000000000082169050919050565b612723816126ee565b811461272e57600080fd5b50565b6000813590506127408161271a565b92915050565b60006020828403121561275c5761275b6126e4565b5b600061276a84828501612731565b91505092915050565b60008115159050919050565b61278881612773565b82525050565b60006020820190506127a3600083018461277f565b92915050565b600081519050919050565b600082825260208201905092915050565b60005b838110156127e35780820151818401526020810190506127c8565b838111156127f2576000848401525b50505050565b6000601f19601f8301169050919050565b6000612814826127a9565b61281e81856127b4565b935061282e8185602086016127c5565b612837816127f8565b840191505092915050565b6000602082019050818103600083015261285c8184612809565b905092915050565b6000819050919050565b61287781612864565b811461288257600080fd5b50565b6000813590506128948161286e565b92915050565b6000602082840312156128b0576128af6126e4565b5b60006128be84828501612885565b91505092915050565b600073ffffffffffffffffffffffffffffffffffffffff82169050919050565b60006128f2826128c7565b9050919050565b612902816128e7565b82525050565b600060208201905061291d60008301846128f9565b92915050565b61292c816128e7565b811461293757600080fd5b50565b60008135905061294981612923565b92915050565b60008060408385031215612966576129656126e4565b5b60006129748582860161293a565b925050602061298585828601612885565b9150509250929050565b61299881612864565b82525050565b60006020820190506129b3600083018461298f565b92915050565b6000806000606084860312156129d2576129d16126e4565b5b60006129e08682870161293a565b93505060206129f18682870161293a565b9250506040612a0286828701612885565b9150509250925092565b600060208284031215612a2257612a216126e4565b5b6000612a308482850161293a565b91505092915050565b600081519050919050565b600082825260208201905092915050565b6000819050602082019050919050565b612a6e81612864565b82525050565b6000612a808383612a65565b60208301905092915050565b6000602082019050919050565b6000612aa482612a39565b612aae8185612a44565b9350612ab983612a55565b8060005b83811015612aea578151612ad18882612a74565b9750612adc83612a8c565b925050600181019050612abd565b5085935050505092915050565b60006020820190508181036000830152612b118184612a99565b905092915050565b600080fd5b600080fd5b7f4e487b7100000000000000000000000000000000000000000000000000000000600052604160045260246000fd5b612b5b826127f8565b810181811067ffffffffffffffff82111715612b7a57612b79612b23565b5b80604052505050565b6000612b8d6126da565b9050612b998282612b52565b919050565b600067ffffffffffffffff821115612bb957612bb8612b23565b5b612bc2826127f8565b9050602081019050919050565b82818337600083830152505050565b6000612bf1612bec84612b9e565b612b83565b905082815260208101848484011115612c0d57612c0c612b1e565b5b612c18848285612bcf565b509392505050565b600082601f830112612c3557612c34612b19565b5b8135612c45848260208601612bde565b91505092915050565b600060208284031215612c6457612c636126e4565b5b600082013567ffffffffffffffff811115612c8257612c816126e9565b5b612c8e84828501612c20565b91505092915050565b612ca081612773565b8114612cab57600080fd5b50565b600081359050612cbd81612c97565b92915050565b60008060408385031215612cda57612cd96126e4565b5b6000612ce88582860161293a565b9250506020612cf985828601612cae565b9150509250929050565b600067ffffffffffffffff821115612d1e57612d1d612b23565b5b612d27826127f8565b9050602081019050919050565b6000612d47612d4284612d03565b612b83565b905082815260208101848484011115612d6357612d62612b1e565b5b612d6e848285612bcf565b509392505050565b600082601f830112612d8b57612d8a612b19565b5b8135612d9b848260208601612d34565b91505092915050565b60008060008060808587031215612dbe57612dbd6126e4565b5b6000612dcc8782880161293a565b9450506020612ddd8782880161293a565b9350506040612dee87828801612885565b925050606085013567ffffffffffffffff811115612e0f57612e0e6126e9565b5b612e1b87828801612d76565b91505092959194509250565b60008060408385031215612e3e57612e3d6126e4565b5b6000612e4c8582860161293a565b9250506020612e5d8582860161293a565b9150509250929050565b7f4e487b7100000000000000000000000000000000000000000000000000000000600052602260045260246000fd5b60006002820490506001821680612eae57607f821691505b60208210811415612ec257612ec1612e67565b5b50919050565b7f4552433732313a20617070726f76656420717565727920666f72206e6f6e657860008201527f697374656e7420746f6b656e0000000000000000000000000000000000000000602082015250565b6000612f24602c836127b4565b9150612f2f82612ec8565b604082019050919050565b60006020820190508181036000830152612f5381612f17565b9050919050565b7f4552433732313a20617070726f76616c20746f2063757272656e74206f776e6560008201527f7200000000000000000000000000000000000000000000000000000000000000602082015250565b6000612fb66021836127b4565b9150612fc182612f5a565b604082019050919050565b60006020820190508181036000830152612fe581612fa9565b9050919050565b7f4552433732313a20617070726f76652063616c6c6572206973206e6f74206f7760008201527f6e6572206e6f7220617070726f76656420666f7220616c6c0000000000000000602082015250565b60006130486038836127b4565b915061305382612fec565b604082019050919050565b600060208201905081810360008301526130778161303b565b9050919050565b7f4552433732313a207472616e736665722063616c6c6572206973206e6f74206f60008201527f776e6572206e6f7220617070726f766564000000000000000000000000000000602082015250565b60006130da6031836127b4565b91506130e58261307e565b604082019050919050565b60006020820190508181036000830152613109816130cd565b9050919050565b7f455243373231456e756d657261626c653a206f776e657220696e646578206f7560008201527f74206f6620626f756e6473000000000000000000000000000000000000000000602082015250565b600061316c602b836127b4565b915061317782613110565b604082019050919050565b6000602082019050818103600083015261319b8161315f565b9050919050565b7f4f776e61626c653a2063616c6c6572206973206e6f7420746865206f776e6572600082015250565b60006131d86020836127b4565b91506131e3826131a2565b602082019050919050565b60006020820190508181036000830152613207816131cb565b9050919050565b600081905092915050565b50565b600061322960008361320e565b915061323482613219565b600082019050919050565b600061324a8261321c565b9150819050919050565b7f4e487b7100000000000000000000000000000000000000000000000000000000600052603260045260246000fd5b7f4e487b7100000000000000000000000000000000000000000000000000000000600052601160045260246000fd5b60006132bd82612864565b91507fffffffffffffffffffffffffffffffffffffffffffffffffffffffffffffffff8214156132f0576132ef613283565b5b600182019050919050565b7f455243373231456e756d657261626c653a20676c6f62616c20696e646578206f60008201527f7574206f6620626f756e64730000000000000000000000000000000000000000602082015250565b6000613357602c836127b4565b9150613362826132fb565b604082019050919050565b600060208201905081810360008301526133868161334a565b9050919050565b7f4552433732313a206f776e657220717565727920666f72206e6f6e657869737460008201527f656e7420746f6b656e0000000000000000000000000000000000000000000000602082015250565b60006133e96029836127b4565b91506133f48261338d565b604082019050919050565b60006020820190508181036000830152613418816133dc565b9050919050565b7f4552433732313a2062616c616e636520717565727920666f7220746865207a6560008201527f726f206164647265737300000000000000000000000000000000000000000000602082015250565b600061347b602a836127b4565b91506134868261341f565b604082019050919050565b600060208201905081810360008301526134aa8161346e565b9050919050565b60006134bc82612864565b91506134c783612864565b9250827fffffffffffffffffffffffffffffffffffffffffffffffffffffffffffffffff038211156134fc576134fb613283565b5b828201905092915050565b7f4552433732314d657461646174613a2055524920717565727920666f72206e6f60008201527f6e6578697374656e7420746f6b656e0000000000000000000000000000000000602082015250565b6000613563602f836127b4565b915061356e82613507565b604082019050919050565b6000602082019050818103600083015261359281613556565b9050919050565b600081905092915050565b60006135af826127a9565b6135b98185613599565b93506135c98185602086016127c5565b80840191505092915050565b60008190508160005260206000209050919050565b600081546135f781612e96565b6136018186613599565b9450600182166000811461361c576001811461362d57613660565b60ff19831686528186019350613660565b613636856135d5565b60005b8381101561365857815481890152600182019150602081019050613639565b838801955050505b50505092915050565b600061367582866135a4565b915061368182856135a4565b915061368d82846135ea565b9150819050949350505050565b7f4f776e61626c653a206e6577206f776e657220697320746865207a65726f206160008201527f6464726573730000000000000000000000000000000000000000000000000000602082015250565b60006136f66026836127b4565b91506137018261369a565b604082019050919050565b60006020820190508181036000830152613725816136e9565b9050919050565b7f4552433732313a206f70657261746f7220717565727920666f72206e6f6e657860008201527f697374656e7420746f6b656e0000000000000000000000000000000000000000602082015250565b6000613788602c836127b4565b91506137938261372c565b604082019050919050565b600060208201905081810360008301526137b78161377b565b9050919050565b7f4552433732313a207472616e73666572206f6620746f6b656e2074686174206960008201527f73206e6f74206f776e0000000000000000000000000000000000000000000000602082015250565b600061381a6029836127b4565b9150613825826137be565b604082019050919050565b600060208201905081810360008301526138498161380d565b9050919050565b7f4552433732313a207472616e7366657220746f20746865207a65726f2061646460008201527f7265737300000000000000000000000000000000000000000000000000000000602082015250565b60006138ac6024836127b4565b91506138b782613850565b604082019050919050565b600060208201905081810360008301526138db8161389f565b9050919050565b60006138ed82612864565b91506138f883612864565b92508282101561390b5761390a613283565b5b828203905092915050565b7f4552433732313a206d696e7420746f20746865207a65726f2061646472657373600082015250565b600061394c6020836127b4565b915061395782613916565b602082019050919050565b6000602082019050818103600083015261397b8161393f565b9050919050565b7f4552433732313a20746f6b656e20616c7265616479206d696e74656400000000600082015250565b60006139b8601c836127b4565b91506139c382613982565b602082019050919050565b600060208201905081810360008301526139e7816139ab565b9050919050565b7f4552433732313a20617070726f766520746f2063616c6c657200000000000000600082015250565b6000613a246019836127b4565b9150613a2f826139ee565b602082019050919050565b60006020820190508181036000830152613a5381613a17565b9050919050565b7f4552433732313a207472616e7366657220746f206e6f6e20455243373231526560008201527f63656976657220696d706c656d656e7465720000000000000000000000000000602082015250565b6000613ab66032836127b4565b9150613ac182613a5a565b604082019050919050565b60006020820190508181036000830152613ae581613aa9565b9050919050565b7f4e487b7100000000000000000000000000000000000000000000000000000000600052601260045260246000fd5b6000613b2682612864565b9150613b3183612864565b925082613b4157613b40613aec565b5b828204905092915050565b6000613b5782612864565b9150613b6283612864565b925082613b7257613b71613aec565b5b828206905092915050565b600081519050919050565b600082825260208201905092915050565b6000613ba482613b7d565b613bae8185613b88565b9350613bbe8185602086016127c5565b613bc7816127f8565b840191505092915050565b6000608082019050613be760008301876128f9565b613bf460208301866128f9565b613c01604083018561298f565b8181036060830152613c138184613b99565b905095945050505050565b600081519050613c2d8161271a565b92915050565b600060208284031215613c4957613c486126e4565b5b6000613c5784828501613c1e565b91505092915050565b7f4e487b7100000000000000000000000000000000000000000000000000000000600052603160045260246000fdfea26469706673582212208c3e76891fd8700b0241d1cab513898630e9348a7dea4ccc133065e02c9525e264736f6c634300080b0033",
  "immutableReferences": {},
  "source": "// SPDX-License-Identifier: MIT\npragma solidity >=0.8.0 <0.9.0;\nimport \"@openzeppelin/contracts/utils/introspection/IERC165.sol\";\nimport \"@openzeppelin/contracts/token/ERC721/IERC721.sol\";\nimport \"@openzeppelin/contracts/token/ERC721/extensions/IERC721Enumerable.sol\";\nimport \"@openzeppelin/contracts/utils/introspection/ERC165.sol\";\nimport \"@openzeppelin/contracts/utils/Strings.sol\";\nimport \"@openzeppelin/contracts/utils/Address.sol\";\nimport \"@openzeppelin/contracts/token/ERC721/extensions/IERC721Metadata.sol\";\nimport \"@openzeppelin/contracts/token/ERC721/IERC721Receiver.sol\";\nimport \"@openzeppelin/contracts/utils/Context.sol\";\nimport \"@openzeppelin/contracts/token/ERC721/ERC721.sol\";\nimport \"@openzeppelin/contracts/token/ERC721/extensions/ERC721Enumerable.sol\";\nimport \"@openzeppelin/contracts/token/ERC721/extensions/ERC721URIStorage.sol\";\nimport \"@openzeppelin/contracts/access/Ownable.sol\";\n\ncontract NFT is ERC721Enumerable, Ownable {\n  using Strings for uint256;\n\n  //baseURI is the location URL of the user (document containing the node).\n  string baseURI;\n  string public baseExtension = \".json\";\n  uint256 public cost = 1 ether;\n  uint256 public maxSupply = 20;\n\n  // Optional mapping for token URIs\n  mapping(uint256 => string) private _tokenURIs;\n\n  constructor(\n    string memory _name,\n    string memory _symbol,\n    string memory _initBaseURI\n  ) ERC721(_name, _symbol) {\n    setBaseURI(_initBaseURI);\n  }\n\n  // internal\n  function _baseURI() internal view virtual override returns (string memory) {\n    return baseURI;\n  }\n\n  // public\n  // string memory _tokenURI\n  function mintRobot() public payable {\n    uint256 supply = totalSupply();\n    require(supply <= maxSupply);\n\n    if (msg.sender != owner()) {\n      require(msg.value >= cost);\n    }\n\n    _mint(msg.sender, supply + 1);\n  }\n\n  function checkOwner(uint256 tokenId) public view returns (address) {\n    address owner = ownerOf(tokenId);\n    return owner;\n  }\n\n  function walletOfOwner(address _owner) public view returns (uint256[] memory) {\n    uint256 ownerTokenCount = balanceOf(_owner);\n    uint256[] memory tokenIds = new uint256[](ownerTokenCount);\n    for (uint256 i; i < ownerTokenCount; i++) {\n      tokenIds[i] = tokenOfOwnerByIndex(_owner, i);\n    }\n    return tokenIds;\n  }\n\n  function tokenURI(uint256 tokenId) public view virtual override returns (string memory) {\n    require(_exists(tokenId), \"ERC721Metadata: URI query for nonexistent token\");\n\n    string memory currentBaseURI = _baseURI();\n    return\n      bytes(currentBaseURI).length > 0\n        ? string(abi.encodePacked(currentBaseURI, tokenId.toString(), baseExtension))\n        : \"no uri\";\n  }\n\n  function _setTokenURI(uint256 tokenId, string memory _tokenURI) internal virtual {\n    require(_exists(tokenId), \"ERC721Metadata: URI set of nonexistent token\");\n    _tokenURIs[tokenId] = _tokenURI;\n  }\n\n  // Only owner\n  function setCost(uint256 _newCost) public onlyOwner {\n    cost = _newCost;\n  }\n\n  function setBaseURI(string memory _newBaseURI) public onlyOwner {\n    baseURI = _newBaseURI;\n  }\n\n  function withdraw() public payable onlyOwner {\n    (bool success, ) = payable(msg.sender).call{ value: address(this).balance }(\"\");\n    require(success);\n  }\n\n  // function _burn(uint256 tokenId) internal override(ERC721, ERC721URIStorage) onlyOwner {\n  //   super._burn(tokenId);\n  // }\n\n  // function _beforeTokenTransfer(\n  //   address from,\n  //   address to,\n  //   uint256 amount\n  // ) internal virtual override(ERC721, ERC721Enumerable) {\n  //   super._beforeTokenTransfer(from, to, amount);\n  // }\n\n  // function supportsInterface(bytes4 interfaceId) public view virtual override(ERC721, ERC721Enumerable) returns (bool) {\n  //   return super.supportsInterface(interfaceId);\n  // }\n}\n",
  "sourcePath": "/Users/Tao.S/Desktop/blockchain/RobotNFT/source/contracts/NFT.sol",
  "compiler": {
    "name": "solc",
    "version": "0.8.11+commit.d7f03943.Emscripten.clang"
  },
  "schemaVersion": "3.4.4",
  "updatedAt": "2022-01-19T07:35:17.447Z",
  "networkType": "ethereum",
  "devdoc": {
    "kind": "dev",
    "methods": {
      "approve(address,uint256)": {
        "details": "See {IERC721-approve}."
      },
      "balanceOf(address)": {
        "details": "See {IERC721-balanceOf}."
      },
      "getApproved(uint256)": {
        "details": "See {IERC721-getApproved}."
      },
      "isApprovedForAll(address,address)": {
        "details": "See {IERC721-isApprovedForAll}."
      },
      "name()": {
        "details": "See {IERC721Metadata-name}."
      },
      "owner()": {
        "details": "Returns the address of the current owner."
      },
      "ownerOf(uint256)": {
        "details": "See {IERC721-ownerOf}."
      },
      "renounceOwnership()": {
        "details": "Leaves the contract without owner. It will not be possible to call `onlyOwner` functions anymore. Can only be called by the current owner. NOTE: Renouncing ownership will leave the contract without an owner, thereby removing any functionality that is only available to the owner."
      },
      "safeTransferFrom(address,address,uint256)": {
        "details": "See {IERC721-safeTransferFrom}."
      },
      "safeTransferFrom(address,address,uint256,bytes)": {
        "details": "See {IERC721-safeTransferFrom}."
      },
      "setApprovalForAll(address,bool)": {
        "details": "See {IERC721-setApprovalForAll}."
      },
      "supportsInterface(bytes4)": {
        "details": "See {IERC165-supportsInterface}."
      },
      "symbol()": {
        "details": "See {IERC721Metadata-symbol}."
      },
      "tokenByIndex(uint256)": {
        "details": "See {IERC721Enumerable-tokenByIndex}."
      },
      "tokenOfOwnerByIndex(address,uint256)": {
        "details": "See {IERC721Enumerable-tokenOfOwnerByIndex}."
      },
      "tokenURI(uint256)": {
        "details": "See {IERC721Metadata-tokenURI}."
      },
      "totalSupply()": {
        "details": "See {IERC721Enumerable-totalSupply}."
      },
      "transferFrom(address,address,uint256)": {
        "details": "See {IERC721-transferFrom}."
      },
      "transferOwnership(address)": {
        "details": "Transfers ownership of the contract to a new account (`newOwner`). Can only be called by the current owner."
      }
    },
    "version": 1
  },
  "userdoc": {
    "kind": "user",
    "methods": {},
    "version": 1
  }
}