{
  "contractName": "RoboCollectible",
  "abi": [
    {
      "inputs": [
        {
          "internalType": "address",
          "name": "_VRFCoordinator",
          "type": "address"
        },
        {
          "internalType": "address",
          "name": "_LinkToken",
          "type": "address"
        },
        {
          "internalType": "bytes32",
          "name": "_keyhash",
          "type": "bytes32"
        }
      ],
      "stateMutability": "nonpayable",
      "type": "constructor"
    },
    {
      "anonymous": false,
      "inputs": [
        {
          "indexed": true,
          "internalType": "address",
          "name": "owner",
          "type": "address"
        },
        {
          "indexed": true,
          "internalType": "address",
          "name": "approved",
          "type": "address"
        },
        {
          "indexed": true,
          "internalType": "uint256",
          "name": "tokenId",
          "type": "uint256"
        }
      ],
      "name": "Approval",
      "type": "event"
    },
    {
      "anonymous": false,
      "inputs": [
        {
          "indexed": true,
          "internalType": "address",
          "name": "owner",
          "type": "address"
        },
        {
          "indexed": true,
          "internalType": "address",
          "name": "operator",
          "type": "address"
        },
        {
          "indexed": false,
          "internalType": "bool",
          "name": "approved",
          "type": "bool"
        }
      ],
      "name": "ApprovalForAll",
      "type": "event"
    },
    {
      "anonymous": false,
      "inputs": [
        {
          "indexed": true,
          "internalType": "address",
          "name": "from",
          "type": "address"
        },
        {
          "indexed": true,
          "internalType": "address",
          "name": "to",
          "type": "address"
        },
        {
          "indexed": true,
          "internalType": "uint256",
          "name": "tokenId",
          "type": "uint256"
        }
      ],
      "name": "Transfer",
      "type": "event"
    },
    {
      "anonymous": false,
      "inputs": [
        {
          "indexed": true,
          "internalType": "bytes32",
          "name": "requestId",
          "type": "bytes32"
        }
      ],
      "name": "requestedCollectible",
      "type": "event"
    },
    {
      "inputs": [
        {
          "internalType": "address",
          "name": "to",
          "type": "address"
        },
        {
          "internalType": "uint256",
          "name": "tokenId",
          "type": "uint256"
        }
      ],
      "name": "approve",
      "outputs": [],
      "stateMutability": "nonpayable",
      "type": "function"
    },
    {
      "inputs": [
        {
          "internalType": "address",
          "name": "owner",
          "type": "address"
        }
      ],
      "name": "balanceOf",
      "outputs": [
        {
          "internalType": "uint256",
          "name": "",
          "type": "uint256"
        }
      ],
      "stateMutability": "view",
      "type": "function"
    },
    {
      "inputs": [
        {
          "internalType": "uint256",
          "name": "tokenId",
          "type": "uint256"
        }
      ],
      "name": "getApproved",
      "outputs": [
        {
          "internalType": "address",
          "name": "",
          "type": "address"
        }
      ],
      "stateMutability": "view",
      "type": "function"
    },
    {
      "inputs": [
        {
          "internalType": "address",
          "name": "owner",
          "type": "address"
        },
        {
          "internalType": "address",
          "name": "operator",
          "type": "address"
        }
      ],
      "name": "isApprovedForAll",
      "outputs": [
        {
          "internalType": "bool",
          "name": "",
          "type": "bool"
        }
      ],
      "stateMutability": "view",
      "type": "function"
    },
    {
      "inputs": [],
      "name": "name",
      "outputs": [
        {
          "internalType": "string",
          "name": "",
          "type": "string"
        }
      ],
      "stateMutability": "view",
      "type": "function"
    },
    {
      "inputs": [
        {
          "internalType": "uint256",
          "name": "tokenId",
          "type": "uint256"
        }
      ],
      "name": "ownerOf",
      "outputs": [
        {
          "internalType": "address",
          "name": "",
          "type": "address"
        }
      ],
      "stateMutability": "view",
      "type": "function"
    },
    {
      "inputs": [],
      "name": "randomResult",
      "outputs": [
        {
          "internalType": "uint256",
          "name": "",
          "type": "uint256"
        }
      ],
      "stateMutability": "view",
      "type": "function"
    },
    {
      "inputs": [
        {
          "internalType": "bytes32",
          "name": "requestId",
          "type": "bytes32"
        },
        {
          "internalType": "uint256",
          "name": "randomness",
          "type": "uint256"
        }
      ],
      "name": "rawFulfillRandomness",
      "outputs": [],
      "stateMutability": "nonpayable",
      "type": "function"
    },
    {
      "inputs": [
        {
          "internalType": "bytes32",
          "name": "",
          "type": "bytes32"
        }
      ],
      "name": "requestIdToSender",
      "outputs": [
        {
          "internalType": "address",
          "name": "",
          "type": "address"
        }
      ],
      "stateMutability": "view",
      "type": "function"
    },
    {
      "inputs": [
        {
          "internalType": "bytes32",
          "name": "",
          "type": "bytes32"
        }
      ],
      "name": "requestIdToTokenId",
      "outputs": [
        {
          "internalType": "uint256",
          "name": "",
          "type": "uint256"
        }
      ],
      "stateMutability": "view",
      "type": "function"
    },
    {
      "inputs": [
        {
          "internalType": "bytes32",
          "name": "",
          "type": "bytes32"
        }
      ],
      "name": "requestIdToTokenURI",
      "outputs": [
        {
          "internalType": "string",
          "name": "",
          "type": "string"
        }
      ],
      "stateMutability": "view",
      "type": "function"
    },
    {
      "inputs": [
        {
          "internalType": "address",
          "name": "from",
          "type": "address"
        },
        {
          "internalType": "address",
          "name": "to",
          "type": "address"
        },
        {
          "internalType": "uint256",
          "name": "tokenId",
          "type": "uint256"
        }
      ],
      "name": "safeTransferFrom",
      "outputs": [],
      "stateMutability": "nonpayable",
      "type": "function"
    },
    {
      "inputs": [
        {
          "internalType": "address",
          "name": "from",
          "type": "address"
        },
        {
          "internalType": "address",
          "name": "to",
          "type": "address"
        },
        {
          "internalType": "uint256",
          "name": "tokenId",
          "type": "uint256"
        },
        {
          "internalType": "bytes",
          "name": "_data",
          "type": "bytes"
        }
      ],
      "name": "safeTransferFrom",
      "outputs": [],
      "stateMutability": "nonpayable",
      "type": "function"
    },
    {
      "inputs": [
        {
          "internalType": "address",
          "name": "operator",
          "type": "address"
        },
        {
          "internalType": "bool",
          "name": "approved",
          "type": "bool"
        }
      ],
      "name": "setApprovalForAll",
      "outputs": [],
      "stateMutability": "nonpayable",
      "type": "function"
    },
    {
      "inputs": [
        {
          "internalType": "bytes4",
          "name": "interfaceId",
          "type": "bytes4"
        }
      ],
      "name": "supportsInterface",
      "outputs": [
        {
          "internalType": "bool",
          "name": "",
          "type": "bool"
        }
      ],
      "stateMutability": "view",
      "type": "function"
    },
    {
      "inputs": [],
      "name": "symbol",
      "outputs": [
        {
          "internalType": "string",
          "name": "",
          "type": "string"
        }
      ],
      "stateMutability": "view",
      "type": "function"
    },
    {
      "inputs": [],
      "name": "tokenCounter",
      "outputs": [
        {
          "internalType": "uint256",
          "name": "",
          "type": "uint256"
        }
      ],
      "stateMutability": "view",
      "type": "function"
    },
    {
      "inputs": [
        {
          "internalType": "uint256",
          "name": "",
          "type": "uint256"
        }
      ],
      "name": "tokenIdToColor",
      "outputs": [
        {
          "internalType": "enum RoboCollectible.Color",
          "name": "",
          "type": "uint8"
        }
      ],
      "stateMutability": "view",
      "type": "function"
    },
    {
      "inputs": [
        {
          "internalType": "uint256",
          "name": "tokenId",
          "type": "uint256"
        }
      ],
      "name": "tokenURI",
      "outputs": [
        {
          "internalType": "string",
          "name": "",
          "type": "string"
        }
      ],
      "stateMutability": "view",
      "type": "function"
    },
    {
      "inputs": [
        {
          "internalType": "address",
          "name": "from",
          "type": "address"
        },
        {
          "internalType": "address",
          "name": "to",
          "type": "address"
        },
        {
          "internalType": "uint256",
          "name": "tokenId",
          "type": "uint256"
        }
      ],
      "name": "transferFrom",
      "outputs": [],
      "stateMutability": "nonpayable",
      "type": "function"
    },
    {
      "inputs": [
        {
          "internalType": "string",
          "name": "tokenURI",
          "type": "string"
        }
      ],
      "name": "createCollectible",
      "outputs": [],
      "stateMutability": "nonpayable",
      "type": "function"
    },
    {
      "inputs": [
        {
          "internalType": "uint256",
          "name": "tokenId",
          "type": "uint256"
        },
        {
          "internalType": "string",
          "name": "_tokenURI",
          "type": "string"
        }
      ],
      "name": "setTokenURI",
      "outputs": [],
      "stateMutability": "nonpayable",
      "type": "function"
    }
  ],
  "bytecode": "0x60c06040523480156200001157600080fd5b5060405162003a4338038062003a438339818101604052810190620000379190620002bf565b82826040518060400160405280600f81526020017f526f626f436f6c6c65637469626c6500000000000000000000000000000000008152506040518060400160405280600481526020017f524f424f000000000000000000000000000000000000000000000000000000008152508160009080519060200190620000bd9291906200016a565b508060019080519060200190620000d69291906200016a565b5050508173ffffffffffffffffffffffffffffffffffffffff1660a08173ffffffffffffffffffffffffffffffffffffffff16815250508073ffffffffffffffffffffffffffffffffffffffff1660808173ffffffffffffffffffffffffffffffffffffffff16815250505050600060088190555080600d8190555067016345785d8a0000600e8190555050505062000380565b82805462000178906200034a565b90600052602060002090601f0160209004810192826200019c5760008555620001e8565b82601f10620001b757805160ff1916838001178555620001e8565b82800160010185558215620001e8579182015b82811115620001e7578251825591602001919060010190620001ca565b5b509050620001f79190620001fb565b5090565b5b8082111562000216576000816000905550600101620001fc565b5090565b600080fd5b600073ffffffffffffffffffffffffffffffffffffffff82169050919050565b60006200024c826200021f565b9050919050565b6200025e816200023f565b81146200026a57600080fd5b50565b6000815190506200027e8162000253565b92915050565b6000819050919050565b620002998162000284565b8114620002a557600080fd5b50565b600081519050620002b9816200028e565b92915050565b600080600060608486031215620002db57620002da6200021a565b5b6000620002eb868287016200026d565b9350506020620002fe868287016200026d565b92505060406200031186828701620002a8565b9150509250925092565b7f4e487b7100000000000000000000000000000000000000000000000000000000600052602260045260246000fd5b600060028204905060018216806200036357607f821691505b602082108114156200037a57620003796200031b565b5b50919050565b60805160a051613696620003ad60003960008181610b8801526114bd0152600061148101526136966000f3fe608060405234801561001057600080fd5b50600436106101425760003560e01c80634372441a116100b8578063a22cb4651161007c578063a22cb46514610399578063b88d4fde146103b5578063c87b56dd146103d1578063d082e38114610401578063e985e9c51461041f578063ea2207171461044f57610142565b80634372441a146102cf5780636352211e146102ff57806370a082311461032f57806394985ddd1461035f57806395d89b411461037b57610142565b8063219c0eee1161010a578063219c0eee146101fd57806322881f881461022d57806323b872dd1461025d57806331f1f3c31461027957806342619f661461029557806342842e0e146102b357610142565b806301ffc9a71461014757806306fdde0314610177578063081812fc14610195578063095ea7b3146101c5578063162094c4146101e1575b600080fd5b610161600480360381019061015c91906120a3565b61047f565b60405161016e91906120eb565b60405180910390f35b61017f610561565b60405161018c919061219f565b60405180910390f35b6101af60048036038101906101aa91906121f7565b6105f3565b6040516101bc9190612265565b60405180910390f35b6101df60048036038101906101da91906122ac565b610678565b005b6101fb60048036038101906101f69190612421565b610790565b005b610217600480360381019061021291906124b3565b6107ee565b6040516102249190612265565b60405180910390f35b610247600480360381019061024291906124b3565b610821565b60405161025491906124ef565b60405180910390f35b6102776004803603810190610272919061250a565b610839565b005b610293600480360381019061028e919061255d565b610899565b005b61029d610956565b6040516102aa91906124ef565b60405180910390f35b6102cd60048036038101906102c8919061250a565b61095c565b005b6102e960048036038101906102e491906124b3565b61097c565b6040516102f6919061219f565b60405180910390f35b610319600480360381019061031491906121f7565b610a1c565b6040516103269190612265565b60405180910390f35b610349600480360381019061034491906125a6565b610ace565b60405161035691906124ef565b60405180910390f35b610379600480360381019061037491906125d3565b610b86565b005b610383610c22565b604051610390919061219f565b60405180910390f35b6103b360048036038101906103ae919061263f565b610cb4565b005b6103cf60048036038101906103ca9190612720565b610cca565b005b6103eb60048036038101906103e691906121f7565b610d2c565b6040516103f8919061219f565b60405180910390f35b610409610e7e565b60405161041691906124ef565b60405180910390f35b610439600480360381019061043491906127a3565b610e84565b60405161044691906120eb565b60405180910390f35b610469600480360381019061046491906121f7565b610f18565b604051610476919061285a565b60405180910390f35b60007f80ac58cd000000000000000000000000000000000000000000000000000000007bffffffffffffffffffffffffffffffffffffffffffffffffffffffff1916827bffffffffffffffffffffffffffffffffffffffffffffffffffffffff1916148061054a57507f5b5e139f000000000000000000000000000000000000000000000000000000007bffffffffffffffffffffffffffffffffffffffffffffffffffffffff1916827bffffffffffffffffffffffffffffffffffffffffffffffffffffffff1916145b8061055a575061055982610f38565b5b9050919050565b606060008054610570906128a4565b80601f016020809104026020016040519081016040528092919081815260200182805461059c906128a4565b80156105e95780601f106105be576101008083540402835291602001916105e9565b820191906000526020600020905b8154815290600101906020018083116105cc57829003601f168201915b5050505050905090565b60006105fe82610fa2565b61063d576040517f08c379a000000000000000000000000000000000000000000000000000000000815260040161063490612948565b60405180910390fd5b6004600083815260200190815260200160002060009054906101000a900473ffffffffffffffffffffffffffffffffffffffff169050919050565b600061068382610a1c565b90508073ffffffffffffffffffffffffffffffffffffffff168373ffffffffffffffffffffffffffffffffffffffff1614156106f4576040517f08c379a00000000000000000000000000000000000000000000000000000000081526004016106eb906129da565b60405180910390fd5b8073ffffffffffffffffffffffffffffffffffffffff1661071361100e565b73ffffffffffffffffffffffffffffffffffffffff16148061074257506107418161073c61100e565b610e84565b5b610781576040517f08c379a000000000000000000000000000000000000000000000000000000000815260040161077890612a6c565b60405180910390fd5b61078b8383611016565b505050565b6107a161079b61100e565b836110cf565b6107e0576040517f08c379a00000000000000000000000000000000000000000000000000000000081526004016107d790612afe565b60405180910390fd5b6107ea82826111ad565b5050565b60096020528060005260406000206000915054906101000a900473ffffffffffffffffffffffffffffffffffffffff1681565b600c6020528060005260406000206000915090505481565b61084a61084461100e565b826110cf565b610889576040517f08c379a000000000000000000000000000000000000000000000000000000000815260040161088090612afe565b60405180910390fd5b610894838383611221565b505050565b60006108a9600d54600e5461147d565b9050336009600083815260200190815260200160002060006101000a81548173ffffffffffffffffffffffffffffffffffffffff021916908373ffffffffffffffffffffffffffffffffffffffff16021790555081600a60008381526020019081526020016000209080519060200190610924929190611f94565b50807f1407d655ff3c024a96c54a8c62eb99076b252e94f2e0cdc30bcf86248a5f1b0360405160405180910390a25050565b600f5481565b61097783838360405180602001604052806000815250610cca565b505050565b600a602052806000526040600020600091509050805461099b906128a4565b80601f01602080910402602001604051908101604052809291908181526020018280546109c7906128a4565b8015610a145780601f106109e957610100808354040283529160200191610a14565b820191906000526020600020905b8154815290600101906020018083116109f757829003601f168201915b505050505081565b6000806002600084815260200190815260200160002060009054906101000a900473ffffffffffffffffffffffffffffffffffffffff169050600073ffffffffffffffffffffffffffffffffffffffff168173ffffffffffffffffffffffffffffffffffffffff161415610ac5576040517f08c379a0000000000000000000000000000000000000000000000000000000008152600401610abc90612b90565b60405180910390fd5b80915050919050565b60008073ffffffffffffffffffffffffffffffffffffffff168273ffffffffffffffffffffffffffffffffffffffff161415610b3f576040517f08c379a0000000000000000000000000000000000000000000000000000000008152600401610b3690612c22565b60405180910390fd5b600360008373ffffffffffffffffffffffffffffffffffffffff1673ffffffffffffffffffffffffffffffffffffffff168152602001908152602001600020549050919050565b7f000000000000000000000000000000000000000000000000000000000000000073ffffffffffffffffffffffffffffffffffffffff163373ffffffffffffffffffffffffffffffffffffffff1614610c14576040517f08c379a0000000000000000000000000000000000000000000000000000000008152600401610c0b90612c8e565b60405180910390fd5b610c1e82826115d0565b5050565b606060018054610c31906128a4565b80601f0160208091040260200160405190810160405280929190818152602001828054610c5d906128a4565b8015610caa5780601f10610c7f57610100808354040283529160200191610caa565b820191906000526020600020905b815481529060010190602001808311610c8d57829003601f168201915b5050505050905090565b610cc6610cbf61100e565b8383611756565b5050565b610cdb610cd561100e565b836110cf565b610d1a576040517f08c379a0000000000000000000000000000000000000000000000000000000008152600401610d1190612afe565b60405180910390fd5b610d26848484846118c3565b50505050565b6060610d3782610fa2565b610d76576040517f08c379a0000000000000000000000000000000000000000000000000000000008152600401610d6d90612d20565b60405180910390fd5b6000600660008481526020019081526020016000208054610d96906128a4565b80601f0160208091040260200160405190810160405280929190818152602001828054610dc2906128a4565b8015610e0f5780601f10610de457610100808354040283529160200191610e0f565b820191906000526020600020905b815481529060010190602001808311610df257829003601f168201915b505050505090506000610e2061191f565b9050600081511415610e36578192505050610e79565b600082511115610e6b578082604051602001610e53929190612d7c565b60405160208183030381529060405292505050610e79565b610e7484611936565b925050505b919050565b60085481565b6000600560008473ffffffffffffffffffffffffffffffffffffffff1673ffffffffffffffffffffffffffffffffffffffff16815260200190815260200160002060008373ffffffffffffffffffffffffffffffffffffffff1673ffffffffffffffffffffffffffffffffffffffff16815260200190815260200160002060009054906101000a900460ff16905092915050565b600b6020528060005260406000206000915054906101000a900460ff1681565b60007f01ffc9a7000000000000000000000000000000000000000000000000000000007bffffffffffffffffffffffffffffffffffffffffffffffffffffffff1916827bffffffffffffffffffffffffffffffffffffffffffffffffffffffff1916149050919050565b60008073ffffffffffffffffffffffffffffffffffffffff166002600084815260200190815260200160002060009054906101000a900473ffffffffffffffffffffffffffffffffffffffff1673ffffffffffffffffffffffffffffffffffffffff1614159050919050565b600033905090565b816004600083815260200190815260200160002060006101000a81548173ffffffffffffffffffffffffffffffffffffffff021916908373ffffffffffffffffffffffffffffffffffffffff160217905550808273ffffffffffffffffffffffffffffffffffffffff1661108983610a1c565b73ffffffffffffffffffffffffffffffffffffffff167f8c5be1e5ebec7d5bd14f71427d1e84f3dd0314c0f7b2291e5b200ac8c7c3b92560405160405180910390a45050565b60006110da82610fa2565b611119576040517f08c379a000000000000000000000000000000000000000000000000000000000815260040161111090612e12565b60405180910390fd5b600061112483610a1c565b90508073ffffffffffffffffffffffffffffffffffffffff168473ffffffffffffffffffffffffffffffffffffffff16148061119357508373ffffffffffffffffffffffffffffffffffffffff1661117b846105f3565b73ffffffffffffffffffffffffffffffffffffffff16145b806111a457506111a38185610e84565b5b91505092915050565b6111b682610fa2565b6111f5576040517f08c379a00000000000000000000000000000000000000000000000000000000081526004016111ec90612ea4565b60405180910390fd5b8060066000848152602001908152602001600020908051906020019061121c929190611f94565b505050565b8273ffffffffffffffffffffffffffffffffffffffff1661124182610a1c565b73ffffffffffffffffffffffffffffffffffffffff1614611297576040517f08c379a000000000000000000000000000000000000000000000000000000000815260040161128e90612f36565b60405180910390fd5b600073ffffffffffffffffffffffffffffffffffffffff168273ffffffffffffffffffffffffffffffffffffffff161415611307576040517f08c379a00000000000000000000000000000000000000000000000000000000081526004016112fe90612fc8565b60405180910390fd5b6113128383836119dd565b61131d600082611016565b6001600360008573ffffffffffffffffffffffffffffffffffffffff1673ffffffffffffffffffffffffffffffffffffffff168152602001908152602001600020600082825461136d9190613017565b925050819055506001600360008473ffffffffffffffffffffffffffffffffffffffff1673ffffffffffffffffffffffffffffffffffffffff16815260200190815260200160002060008282546113c4919061304b565b92505081905550816002600083815260200190815260200160002060006101000a81548173ffffffffffffffffffffffffffffffffffffffff021916908373ffffffffffffffffffffffffffffffffffffffff160217905550808273ffffffffffffffffffffffffffffffffffffffff168473ffffffffffffffffffffffffffffffffffffffff167fddf252ad1be2c89b69c2b068fc378daa952ba7f163c4a11628f55a4df523b3ef60405160405180910390a4505050565b60007f000000000000000000000000000000000000000000000000000000000000000073ffffffffffffffffffffffffffffffffffffffff16634000aea07f0000000000000000000000000000000000000000000000000000000000000000848660006040516020016114f19291906130b0565b6040516020818303038152906040526040518463ffffffff1660e01b815260040161151e9392919061312e565b6020604051808303816000875af115801561153d573d6000803e3d6000fd5b505050506040513d601f19601f820116820180604052508101906115619190613181565b5060006115848460003060076000898152602001908152602001600020546119e2565b9050600160076000868152602001908152602001600020546115a6919061304b565b60076000868152602001908152602001600020819055506115c78482611a1e565b91505092915050565b60006009600084815260200190815260200160002060009054906101000a900473ffffffffffffffffffffffffffffffffffffffff1690506000600a60008581526020019081526020016000208054611628906128a4565b80601f0160208091040260200160405190810160405280929190818152602001828054611654906128a4565b80156116a15780601f10611676576101008083540402835291602001916116a1565b820191906000526020600020905b81548152906001019060200180831161168457829003601f168201915b50505050509050600060085490506116b98382611a51565b6116c381836111ad565b60006003856116d291906131dd565b60038111156116e4576116e36127e3565b5b905080600b600084815260200190815260200160002060006101000a81548160ff0219169083600381111561171c5761171b6127e3565b5b021790555081600c6000888152602001908152602001600020819055506001600854611748919061304b565b600881905550505050505050565b8173ffffffffffffffffffffffffffffffffffffffff168373ffffffffffffffffffffffffffffffffffffffff1614156117c5576040517f08c379a00000000000000000000000000000000000000000000000000000000081526004016117bc9061325a565b60405180910390fd5b80600560008573ffffffffffffffffffffffffffffffffffffffff1673ffffffffffffffffffffffffffffffffffffffff16815260200190815260200160002060008473ffffffffffffffffffffffffffffffffffffffff1673ffffffffffffffffffffffffffffffffffffffff16815260200190815260200160002060006101000a81548160ff0219169083151502179055508173ffffffffffffffffffffffffffffffffffffffff168373ffffffffffffffffffffffffffffffffffffffff167f17307eab39ab6107e8899845ad3d59bd9653f200f220920489ca2b5937696c31836040516118b691906120eb565b60405180910390a3505050565b6118ce848484611221565b6118da84848484611a6f565b611919576040517f08c379a0000000000000000000000000000000000000000000000000000000008152600401611910906132ec565b60405180910390fd5b50505050565b606060405180602001604052806000815250905090565b606061194182610fa2565b611980576040517f08c379a00000000000000000000000000000000000000000000000000000000081526004016119779061337e565b60405180910390fd5b600061198a61191f565b905060008151116119aa57604051806020016040528060008152506119d5565b806119b484611bf7565b6040516020016119c5929190612d7c565b6040516020818303038152906040525b915050919050565b505050565b6000848484846040516020016119fb949392919061339e565b6040516020818303038152906040528051906020012060001c9050949350505050565b60008282604051602001611a33929190613425565b60405160208183030381529060405280519060200120905092915050565b611a6b828260405180602001604052806000815250611d58565b5050565b6000611a908473ffffffffffffffffffffffffffffffffffffffff16611db3565b15611bea578373ffffffffffffffffffffffffffffffffffffffff1663150b7a02611ab961100e565b8786866040518563ffffffff1660e01b8152600401611adb9493929190613451565b6020604051808303816000875af1925050508015611b1757506040513d601f19601f82011682018060405250810190611b1491906134b2565b60015b611b9a573d8060008114611b47576040519150601f19603f3d011682016040523d82523d6000602084013e611b4c565b606091505b50600081511415611b92576040517f08c379a0000000000000000000000000000000000000000000000000000000008152600401611b89906132ec565b60405180910390fd5b805181602001fd5b63150b7a0260e01b7bffffffffffffffffffffffffffffffffffffffffffffffffffffffff1916817bffffffffffffffffffffffffffffffffffffffffffffffffffffffff191614915050611bef565b600190505b949350505050565b60606000821415611c3f576040518060400160405280600181526020017f30000000000000000000000000000000000000000000000000000000000000008152509050611d53565b600082905060005b60008214611c71578080611c5a906134df565b915050600a82611c6a9190613528565b9150611c47565b60008167ffffffffffffffff811115611c8d57611c8c6122f6565b5b6040519080825280601f01601f191660200182016040528015611cbf5781602001600182028036833780820191505090505b5090505b60008514611d4c57600182611cd89190613017565b9150600a85611ce791906131dd565b6030611cf3919061304b565b60f81b818381518110611d0957611d08613559565b5b60200101907effffffffffffffffffffffffffffffffffffffffffffffffffffffffffffff1916908160001a905350600a85611d459190613528565b9450611cc3565b8093505050505b919050565b611d628383611dc6565b611d6f6000848484611a6f565b611dae576040517f08c379a0000000000000000000000000000000000000000000000000000000008152600401611da5906132ec565b60405180910390fd5b505050565b600080823b905060008111915050919050565b600073ffffffffffffffffffffffffffffffffffffffff168273ffffffffffffffffffffffffffffffffffffffff161415611e36576040517f08c379a0000000000000000000000000000000000000000000000000000000008152600401611e2d906135d4565b60405180910390fd5b611e3f81610fa2565b15611e7f576040517f08c379a0000000000000000000000000000000000000000000000000000000008152600401611e7690613640565b60405180910390fd5b611e8b600083836119dd565b6001600360008473ffffffffffffffffffffffffffffffffffffffff1673ffffffffffffffffffffffffffffffffffffffff1681526020019081526020016000206000828254611edb919061304b565b92505081905550816002600083815260200190815260200160002060006101000a81548173ffffffffffffffffffffffffffffffffffffffff021916908373ffffffffffffffffffffffffffffffffffffffff160217905550808273ffffffffffffffffffffffffffffffffffffffff16600073ffffffffffffffffffffffffffffffffffffffff167fddf252ad1be2c89b69c2b068fc378daa952ba7f163c4a11628f55a4df523b3ef60405160405180910390a45050565b828054611fa0906128a4565b90600052602060002090601f016020900481019282611fc25760008555612009565b82601f10611fdb57805160ff1916838001178555612009565b82800160010185558215612009579182015b82811115612008578251825591602001919060010190611fed565b5b509050612016919061201a565b5090565b5b8082111561203357600081600090555060010161201b565b5090565b6000604051905090565b600080fd5b600080fd5b60007fffffffff0000000000000000000000000000000000000000000000000000000082169050919050565b6120808161204b565b811461208b57600080fd5b50565b60008135905061209d81612077565b92915050565b6000602082840312156120b9576120b8612041565b5b60006120c78482850161208e565b91505092915050565b60008115159050919050565b6120e5816120d0565b82525050565b600060208201905061210060008301846120dc565b92915050565b600081519050919050565b600082825260208201905092915050565b60005b83811015612140578082015181840152602081019050612125565b8381111561214f576000848401525b50505050565b6000601f19601f8301169050919050565b600061217182612106565b61217b8185612111565b935061218b818560208601612122565b61219481612155565b840191505092915050565b600060208201905081810360008301526121b98184612166565b905092915050565b6000819050919050565b6121d4816121c1565b81146121df57600080fd5b50565b6000813590506121f1816121cb565b92915050565b60006020828403121561220d5761220c612041565b5b600061221b848285016121e2565b91505092915050565b600073ffffffffffffffffffffffffffffffffffffffff82169050919050565b600061224f82612224565b9050919050565b61225f81612244565b82525050565b600060208201905061227a6000830184612256565b92915050565b61228981612244565b811461229457600080fd5b50565b6000813590506122a681612280565b92915050565b600080604083850312156122c3576122c2612041565b5b60006122d185828601612297565b92505060206122e2858286016121e2565b9150509250929050565b600080fd5b600080fd5b7f4e487b7100000000000000000000000000000000000000000000000000000000600052604160045260246000fd5b61232e82612155565b810181811067ffffffffffffffff8211171561234d5761234c6122f6565b5b80604052505050565b6000612360612037565b905061236c8282612325565b919050565b600067ffffffffffffffff82111561238c5761238b6122f6565b5b61239582612155565b9050602081019050919050565b82818337600083830152505050565b60006123c46123bf84612371565b612356565b9050828152602081018484840111156123e0576123df6122f1565b5b6123eb8482856123a2565b509392505050565b600082601f830112612408576124076122ec565b5b81356124188482602086016123b1565b91505092915050565b6000806040838503121561243857612437612041565b5b6000612446858286016121e2565b925050602083013567ffffffffffffffff81111561246757612466612046565b5b612473858286016123f3565b9150509250929050565b6000819050919050565b6124908161247d565b811461249b57600080fd5b50565b6000813590506124ad81612487565b92915050565b6000602082840312156124c9576124c8612041565b5b60006124d78482850161249e565b91505092915050565b6124e9816121c1565b82525050565b600060208201905061250460008301846124e0565b92915050565b60008060006060848603121561252357612522612041565b5b600061253186828701612297565b935050602061254286828701612297565b9250506040612553868287016121e2565b9150509250925092565b60006020828403121561257357612572612041565b5b600082013567ffffffffffffffff81111561259157612590612046565b5b61259d848285016123f3565b91505092915050565b6000602082840312156125bc576125bb612041565b5b60006125ca84828501612297565b91505092915050565b600080604083850312156125ea576125e9612041565b5b60006125f88582860161249e565b9250506020612609858286016121e2565b9150509250929050565b61261c816120d0565b811461262757600080fd5b50565b60008135905061263981612613565b92915050565b6000806040838503121561265657612655612041565b5b600061266485828601612297565b92505060206126758582860161262a565b9150509250929050565b600067ffffffffffffffff82111561269a576126996122f6565b5b6126a382612155565b9050602081019050919050565b60006126c36126be8461267f565b612356565b9050828152602081018484840111156126df576126de6122f1565b5b6126ea8482856123a2565b509392505050565b600082601f830112612707576127066122ec565b5b81356127178482602086016126b0565b91505092915050565b6000806000806080858703121561273a57612739612041565b5b600061274887828801612297565b945050602061275987828801612297565b935050604061276a878288016121e2565b925050606085013567ffffffffffffffff81111561278b5761278a612046565b5b612797878288016126f2565b91505092959194509250565b600080604083850312156127ba576127b9612041565b5b60006127c885828601612297565b92505060206127d985828601612297565b9150509250929050565b7f4e487b7100000000000000000000000000000000000000000000000000000000600052602160045260246000fd5b60048110612823576128226127e3565b5b50565b600081905061283482612812565b919050565b600061284482612826565b9050919050565b61285481612839565b82525050565b600060208201905061286f600083018461284b565b92915050565b7f4e487b7100000000000000000000000000000000000000000000000000000000600052602260045260246000fd5b600060028204905060018216806128bc57607f821691505b602082108114156128d0576128cf612875565b5b50919050565b7f4552433732313a20617070726f76656420717565727920666f72206e6f6e657860008201527f697374656e7420746f6b656e0000000000000000000000000000000000000000602082015250565b6000612932602c83612111565b915061293d826128d6565b604082019050919050565b6000602082019050818103600083015261296181612925565b9050919050565b7f4552433732313a20617070726f76616c20746f2063757272656e74206f776e6560008201527f7200000000000000000000000000000000000000000000000000000000000000602082015250565b60006129c4602183612111565b91506129cf82612968565b604082019050919050565b600060208201905081810360008301526129f3816129b7565b9050919050565b7f4552433732313a20617070726f76652063616c6c6572206973206e6f74206f7760008201527f6e6572206e6f7220617070726f76656420666f7220616c6c0000000000000000602082015250565b6000612a56603883612111565b9150612a61826129fa565b604082019050919050565b60006020820190508181036000830152612a8581612a49565b9050919050565b7f4552433732313a207472616e736665722063616c6c6572206973206e6f74206f60008201527f776e6572206e6f7220617070726f766564000000000000000000000000000000602082015250565b6000612ae8603183612111565b9150612af382612a8c565b604082019050919050565b60006020820190508181036000830152612b1781612adb565b9050919050565b7f4552433732313a206f776e657220717565727920666f72206e6f6e657869737460008201527f656e7420746f6b656e0000000000000000000000000000000000000000000000602082015250565b6000612b7a602983612111565b9150612b8582612b1e565b604082019050919050565b60006020820190508181036000830152612ba981612b6d565b9050919050565b7f4552433732313a2062616c616e636520717565727920666f7220746865207a6560008201527f726f206164647265737300000000000000000000000000000000000000000000602082015250565b6000612c0c602a83612111565b9150612c1782612bb0565b604082019050919050565b60006020820190508181036000830152612c3b81612bff565b9050919050565b7f4f6e6c7920565246436f6f7264696e61746f722063616e2066756c66696c6c00600082015250565b6000612c78601f83612111565b9150612c8382612c42565b602082019050919050565b60006020820190508181036000830152612ca781612c6b565b9050919050565b7f45524337323155524953746f726167653a2055524920717565727920666f722060008201527f6e6f6e6578697374656e7420746f6b656e000000000000000000000000000000602082015250565b6000612d0a603183612111565b9150612d1582612cae565b604082019050919050565b60006020820190508181036000830152612d3981612cfd565b9050919050565b600081905092915050565b6000612d5682612106565b612d608185612d40565b9350612d70818560208601612122565b80840191505092915050565b6000612d888285612d4b565b9150612d948284612d4b565b91508190509392505050565b7f4552433732313a206f70657261746f7220717565727920666f72206e6f6e657860008201527f697374656e7420746f6b656e0000000000000000000000000000000000000000602082015250565b6000612dfc602c83612111565b9150612e0782612da0565b604082019050919050565b60006020820190508181036000830152612e2b81612def565b9050919050565b7f45524337323155524953746f726167653a2055524920736574206f66206e6f6e60008201527f6578697374656e7420746f6b656e000000000000000000000000000000000000602082015250565b6000612e8e602e83612111565b9150612e9982612e32565b604082019050919050565b60006020820190508181036000830152612ebd81612e81565b9050919050565b7f4552433732313a207472616e73666572206f6620746f6b656e2074686174206960008201527f73206e6f74206f776e0000000000000000000000000000000000000000000000602082015250565b6000612f20602983612111565b9150612f2b82612ec4565b604082019050919050565b60006020820190508181036000830152612f4f81612f13565b9050919050565b7f4552433732313a207472616e7366657220746f20746865207a65726f2061646460008201527f7265737300000000000000000000000000000000000000000000000000000000602082015250565b6000612fb2602483612111565b9150612fbd82612f56565b604082019050919050565b60006020820190508181036000830152612fe181612fa5565b9050919050565b7f4e487b7100000000000000000000000000000000000000000000000000000000600052601160045260246000fd5b6000613022826121c1565b915061302d836121c1565b9250828210156130405761303f612fe8565b5b828203905092915050565b6000613056826121c1565b9150613061836121c1565b9250827fffffffffffffffffffffffffffffffffffffffffffffffffffffffffffffffff0382111561309657613095612fe8565b5b828201905092915050565b6130aa8161247d565b82525050565b60006040820190506130c560008301856130a1565b6130d260208301846124e0565b9392505050565b600081519050919050565b600082825260208201905092915050565b6000613100826130d9565b61310a81856130e4565b935061311a818560208601612122565b61312381612155565b840191505092915050565b60006060820190506131436000830186612256565b61315060208301856124e0565b818103604083015261316281846130f5565b9050949350505050565b60008151905061317b81612613565b92915050565b60006020828403121561319757613196612041565b5b60006131a58482850161316c565b91505092915050565b7f4e487b7100000000000000000000000000000000000000000000000000000000600052601260045260246000fd5b60006131e8826121c1565b91506131f3836121c1565b925082613203576132026131ae565b5b828206905092915050565b7f4552433732313a20617070726f766520746f2063616c6c657200000000000000600082015250565b6000613244601983612111565b915061324f8261320e565b602082019050919050565b6000602082019050818103600083015261327381613237565b9050919050565b7f4552433732313a207472616e7366657220746f206e6f6e20455243373231526560008201527f63656976657220696d706c656d656e7465720000000000000000000000000000602082015250565b60006132d6603283612111565b91506132e18261327a565b604082019050919050565b60006020820190508181036000830152613305816132c9565b9050919050565b7f4552433732314d657461646174613a2055524920717565727920666f72206e6f60008201527f6e6578697374656e7420746f6b656e0000000000000000000000000000000000602082015250565b6000613368602f83612111565b91506133738261330c565b604082019050919050565b600060208201905081810360008301526133978161335b565b9050919050565b60006080820190506133b360008301876130a1565b6133c060208301866124e0565b6133cd6040830185612256565b6133da60608301846124e0565b95945050505050565b6000819050919050565b6133fe6133f98261247d565b6133e3565b82525050565b6000819050919050565b61341f61341a826121c1565b613404565b82525050565b600061343182856133ed565b602082019150613441828461340e565b6020820191508190509392505050565b60006080820190506134666000830187612256565b6134736020830186612256565b61348060408301856124e0565b818103606083015261349281846130f5565b905095945050505050565b6000815190506134ac81612077565b92915050565b6000602082840312156134c8576134c7612041565b5b60006134d68482850161349d565b91505092915050565b60006134ea826121c1565b91507fffffffffffffffffffffffffffffffffffffffffffffffffffffffffffffffff82141561351d5761351c612fe8565b5b600182019050919050565b6000613533826121c1565b915061353e836121c1565b92508261354e5761354d6131ae565b5b828204905092915050565b7f4e487b7100000000000000000000000000000000000000000000000000000000600052603260045260246000fd5b7f4552433732313a206d696e7420746f20746865207a65726f2061646472657373600082015250565b60006135be602083612111565b91506135c982613588565b602082019050919050565b600060208201905081810360008301526135ed816135b1565b9050919050565b7f4552433732313a20746f6b656e20616c7265616479206d696e74656400000000600082015250565b600061362a601c83612111565b9150613635826135f4565b602082019050919050565b600060208201905081810360008301526136598161361d565b905091905056fea26469706673582212200adcf4fd2ee7398594f66165ffdfd8f8559cc716462052eaaf727932e330db6364736f6c634300080b0033",
  "immutableReferences": {
    "73": [
      {
        "length": 32,
        "start": 5249
      }
    ],
    "75": [
      {
        "length": 32,
        "start": 2952
      },
      {
        "length": 32,
        "start": 5309
      }
    ]
  },
  "source": "// SPDX-License-Identifier: MIT\npragma solidity >=0.8.0 <0.9.0;\nimport \"@openzeppelin/contracts/token/ERC721/ERC721.sol\";\nimport \"@openzeppelin/contracts/token/ERC721/extensions/ERC721URIStorage.sol\";\nimport \"@openzeppelin/contracts/access/AccessControl.sol\";\nimport \"@chainlink/contracts/src/v0.8/VRFConsumerBase.sol\";\n\ncontract RoboCollectible is ERC721URIStorage, VRFConsumerBase {\n    uint256 public tokenCounter;\n\n    enum Color{YELLOW, GREEN, PINK, PURPLE }\n\n    mapping(bytes32 => address) public requestIdToSender;\n    mapping(bytes32 => string) public requestIdToTokenURI;\n    mapping(uint256 => Color) public tokenIdToColor;\n    mapping(bytes32 => uint256) public requestIdToTokenId;\n\n    event requestedCollectible(bytes32 indexed requestId);\n    //information needed to get a random number\n        bytes32 internal keyHash;\n        uint256 internal fee;\n        uint256 public randomResult;\n\n \n    //import VRFConsumerBase and ERC721 into the constructor\n    //VRF coordinator checks for true cryptographic randomness. //LinkToken connects you to the oraclee //keyhash directs you to the correct oracle\n    constructor(address _VRFCoordinator, address _LinkToken, bytes32 _keyhash)\n    VRFConsumerBase(_VRFCoordinator, _LinkToken)\n    ERC721(\"RoboCollectible\", \"ROBO\")\n    {\n        tokenCounter = 0;\n        keyHash = _keyhash;\n        fee = 0.1 * 10 ** 18;\n    }\n\n    //userprovidedseed and keyhash are used to verigy true randomness as well\n    function createCollectible(string memory tokenURI)\n        public {\n        bytes32 requestId = requestRandomness(keyHash, fee);\n        requestIdToSender[requestId] = msg.sender;\n        requestIdToTokenURI[requestId] = tokenURI;\n        emit requestedCollectible(requestId);\n    }\n  \n    function fulfillRandomness(bytes32 requestId, uint256 randomNumber) internal override {\n        address dogOwner = requestIdToSender[requestId];\n        string memory tokenURI = requestIdToTokenURI[requestId];\n        uint256 newItemId = tokenCounter;\n        _safeMint(dogOwner, newItemId);\n        _setTokenURI(newItemId, tokenURI);\n        Color color = Color(randomNumber % 3);\n        tokenIdToColor[newItemId] = color;\n        requestIdToTokenId[requestId] = newItemId;\n        tokenCounter = tokenCounter + 1;\n    }\n\n    function setTokenURI(uint256 tokenId, string memory _tokenURI) public {\n        require(\n            _isApprovedOrOwner(_msgSender(), tokenId),\n            \"ERC721: transfer caller is not owner nor approved\"\n        );\n        _setTokenURI(tokenId, _tokenURI);\n    }\n}\n",
  "sourcePath": "/Users/Tao.S/Desktop/blockchain/RobotNFT/source/contracts/RoboCollectible.sol",
  "compiler": {
    "name": "solc",
    "version": "0.8.11+commit.d7f03943.Emscripten.clang"
  },
  "schemaVersion": "3.4.4",
  "updatedAt": "2022-01-28T07:09:29.642Z",
  "devdoc": {
    "kind": "dev",
    "methods": {
      "approve(address,uint256)": {
        "details": "See {IERC721-approve}."
      },
      "balanceOf(address)": {
        "details": "See {IERC721-balanceOf}."
      },
      "getApproved(uint256)": {
        "details": "See {IERC721-getApproved}."
      },
      "isApprovedForAll(address,address)": {
        "details": "See {IERC721-isApprovedForAll}."
      },
      "name()": {
        "details": "See {IERC721Metadata-name}."
      },
      "ownerOf(uint256)": {
        "details": "See {IERC721-ownerOf}."
      },
      "safeTransferFrom(address,address,uint256)": {
        "details": "See {IERC721-safeTransferFrom}."
      },
      "safeTransferFrom(address,address,uint256,bytes)": {
        "details": "See {IERC721-safeTransferFrom}."
      },
      "setApprovalForAll(address,bool)": {
        "details": "See {IERC721-setApprovalForAll}."
      },
      "supportsInterface(bytes4)": {
        "details": "See {IERC165-supportsInterface}."
      },
      "symbol()": {
        "details": "See {IERC721Metadata-symbol}."
      },
      "tokenURI(uint256)": {
        "details": "See {IERC721Metadata-tokenURI}."
      },
      "transferFrom(address,address,uint256)": {
        "details": "See {IERC721-transferFrom}."
      }
    },
    "version": 1
  },
  "userdoc": {
    "kind": "user",
    "methods": {},
    "version": 1
  }
}